:020000040800F2
:10000000000E0020F101000885370008E9300008E3
:10001000993600086D0800088D4F000800000000A8
:10002000000000000000000000000000713A00081D
:100030005F090008000000001D3A0008733A00083C
:100040000B0200080B0200080B0200080B0200085C
:100050000B0200080B0200080B0200080B0200084C
:100060000B0200080B0200080B0200080B0200083C
:10007000710800087D080008890800080B020008C4
:100080000B020008950800080B0200080B0200088C
:100090000B0200080B0200080B0200080B0200080C
:1000A0000B020008ED3A00080B0200080B020008E2
:1000B0000B020008F93A00080B0200080B020008C6
:1000C0000B0200080B0200080B0200080B020008DC
:1000D0000B020008B54E0008C14E00080B020008D4
:1000E0000B0200080B0200080B0200080B020008BC
:1000F0001D3B00080B0200080B0200080B02000861
:100100000B0200080B0200080B0200080B0200089B
:10011000294000087D400008053B0008113B00080D
:100120000B020008A10800080B0200080B020008DF
:100130000B0200080B0200080B0200080B0200086B
:100140000B0200080B0200080B0200080B0200085B
:100150000B0200080B0200080B0200080B0200084B
:100160000B0200080B0200080B0200080B0200083B
:100170000B0200080B0200080B0200080B0200082B
:100180000B0200080B0200080B0200080B0200081B
:100190000B020008000000000B0200080B02000820
:1001A0000B0200080B0200080B0200080B020008FB
:1001B0000B0200080B0200080B0200080B020008EB
:1001C0000B0200080B020008AD0800080B02000833
:1001D0000B0200080B020008DFF810D000F082F9D3
:1001E00000480047F5500008AFF30080000E0020E3
:1001F0000648804706480047FEE7FEE7FEE7FEE7C1
:10020000FEE7FEE7FEE7FEE7FEE7FEE7DD3A000871
:10021000D90100082DE9F05F0546002092469B4673
:1002200088460646814640241BE02846414647460C
:10023000224600F004F953465A46C01A914110D3A1
:1002400011461846224600F0EBF82D1A67EB01081C
:100250004F4622460120002100F0E2F817EB00098A
:100260004E41201EA4F10104DFDC484631462A46F7
:100270004346BDE8F09FD2B201E000F8012B491ED1
:10028000FBD270470022F6E710B513460A46044633
:100290001946FFF7F0FF204610BD00000FB400B56F
:1002A0008DB010A909900B9000914FF0FF300A908B
:1002B00000200C9005480690054807906A4609A85A
:1002C0000F9900F0E1F80DB05DF814FBA5040008EB
:1002D000C30400082DE9FF5F1D464FF0FF3BD5E941
:1002E000014691465F464FF00008A9697F1C0198BE
:1002F0008847296A824688470028F6D1BAF1FF3F2D
:100300000CD024F4C064002E19DD600614D5BAF1B7
:100310002B0F09D0BAF12D0F0ED103E0584604B0CF
:10032000BDE8F09F44F48064A9697F1C0198884768
:10033000761E8246002E02DDBAF1300F03D0B9F1ED
:10034000000F26D032E0A969761E44F400747F1CA9
:10035000019888478246002E05DDBAF1780F06D055
:10036000BAF1580F03D0B9F1000F10D01EE0B9F167
:10037000000F02D0B9F1100F18D1A969761E24F42C
:1003800000747F1C019888478246102002E00820F4
:1003900000E00A20814609E008FB0908A969761EE9
:1003A00044F400747F1C019888478246002E05DDC6
:1003B0004946504600F053F80028EDDAE969019803
:1003C0008847A00502D46FF00100A8E7E00725D117
:1003D000600613D5600502D5C8F1000000E0404674
:1003E00029680A1D2A600968220501D5087015E0F0
:1003F000220701D5088011E008600FE02868011D80
:1004000029600068210502D580F8008006E02107F8
:1004100002D5A0F8008001E0C0F8008038467EE7F1
:10042000202A04DB203A00FA02F1002070479140B4
:10043000C2F1200320FA03F3194390407047202AA9
:1004400004DB203A21FA02F00021704721FA02F37E
:10045000D040C2F1200291400843194670473A2823
:1004600000D2303820F02002412A01D3A2F1370017
:10047000884201D34FF0FF307047000002681144FA
:100480001378016018467047D160044951610449EE
:10049000116200211161114600F03CB87D04000892
:1004A00009050008426842B1016811F8013B23B117
:1004B000521EC0E90012184670470121C160881E13
:1004C000704742685AB1C368016843B983688B4278
:1004D00005D0491E521CC0E90012002070474FF0A1
:1004E000FF307047064C074D06E0E06840F001031E
:1004F00094E8070098471034AC42F6D3FFF770FE3B
:10050000C0540008E0540008C0B24FF4F05100F0AD
:1005100099B900002DE9F34F8BB04FF0000801F1BD
:100520000C000C464FF0010B46460DF1080A0190F5
:100530006269012101989047051E2DD0252D2CD0F0
:10054000216A8847C0B16269012101989047216AF8
:1005500088470028F7D1411E62690198904700E062
:10056000761CA1690B988847216A88470028F7D133
:10057000E1690B988847DBE7A1690B988847074634
:10058000A84201D1761CD3E7E1690B9888477F1C0C
:1005900002D1B8F1000F6FD047E1002762693D46F4
:1005A0003946019890472A2804D1626901210198AF
:1005B00090470125DFF888926269012101989047F0
:1005C000A0F130010A290AD24F45E5DC07EB87018B
:1005D00000EB4107303FDFD445F01005ECE7E906BA
:1005E00001D46FF000476C280AD04C2814D068283A
:1005F00015D06A280DD074281CD07A281AD01DE096
:1006000062690121019890476C2802D045F00405E9
:1006100014E045F002050DE045F020050AE06269AE
:10062000012101989047682802D045F0080505E0AF
:1006300045F400656269012101989047C4E90157BA
:1006400065283DD019DC58287AD00CDC452837D0F5
:1006500004DC252826D0412831D131E046282FD08E
:1006600047282CD12CE05B2877D0612828D063283C
:100670007CD0642823D15AE0D1E06F2848D008DC30
:1006800066281DD067281BD0692821D06E2816D176
:1006900027E0702845D0732868D0752847D078287F
:1006A0000DD14DE0A1690B988847054625283FF4F8
:1006B00069AFE1690B9888476D1C3FF46AAFB4E0FD
:1006C00023466A466FF001000B99AFF300809FE06C
:1006D00045F040006060A80723464FF0000236D482
:1006E0003EE0E8077FF447AF2068011D2160006805
:1006F000290501D506701BE7290701D5068017E7F4
:10070000A90703D5F117C0E9006111E706600FE7FB
:1007100045F040006060A80723464FF0080216D459
:100720001EE040F60E0125EA0100606016E045F08B
:1007300040006060A80723464FF00A0207D40FE08C
:1007400045F040006060A80708D5234610226FF0EE
:1007500001000B99AFF300805AE007E02346102216
:100760006FF001000B99FFF7B5FD51E04FF0000964
:100770004F464B46632802D05B2807D041E02079E2
:10078000C00601D40120A06001273AE0626901217E
:10079000019890475E2805D14FF0010962694946EA
:1007A00001989047216939B900210A46534643F818
:1007B0002120491C0829FADBB0B3216969B9C117A6
:1007C00000EBD16253110AEB830122F01F02821A5F
:1007D00001200B68904003430B606269012101987E
:1007E00090475D28E8D1B9F1000F09D000205146AB
:1007F00051F82020D24341F82020401C0828F7DB84
:1008000002AB224600976FF001000B99AFF3008016
:1008100000280CDA401C08D1BBF1000F05D04FF0C6
:10082000FF300DB0BDE8F08FFFE74046F9E7E9077C
:1008300001D108F1010806444FF0000B78E60000F2
:10084000CCCCCC0C7F2801D9002208E0064A02EB70
:100850005002C007127800D1120902F00F020120E5
:10086000904008407047000080540008FEE70000F8
:10087000014800F0E8B8000018080020014800F026
:10088000E2B80000D8080020014800F0DCB8000001
:1008900038090020014800F0D6B800007808002090
:1008A000014800F0D0B8000058070020014800F0CF
:1008B000CAB80000B80700200D4902688A4201D278
:1008C0000C4901E00B492031D2B2083A1423B2FBA3
:1008D000F3F2436C23F0030319448164054980312A
:1008E000C16402F01F0201219140016570470000C0
:1008F00008040240000802400179074A491E02EB41
:1009000081024265044A4032826501F01F020121E2
:100910009140C165704700000009024030B5D0E940
:1009200013546C60446D002C02D0D0E916546C60F6
:1009300090F8444004F01F050124AC40056C6C6045
:10094000046863608368102B04D0036899600068B2
:10095000C26030BD03689A600068C16030BD7047F6
:1009600072B6FEE710B5002190F825200123022A77
:1009700003D00421C163012122E00268146824F03D
:100980000E041460826C146824F48074146002688D
:10099000146824F00104146090F84420046C02F000
:1009A0001F0203FA02F26260D0E913426260426DF4
:1009B00032B1146824F480741460D0E91642626085
:1009C0002430437000220270084610BD70B5002428
:1009D00090F8251000230122022906D0042124309A
:1009E000816142700370012429E001680D6825F0DF
:1009F0000E050D6001680D6825F001050D60816C24
:100A00000D6825F480750D6090F84410154601F0CE
:100A10001F018A40016C4A60D0E913215160416D89
:100A200031B10A6822F480720A60D0E9162151605F
:100A300080F8255080F82430816B01B1884720462A
:100A400070BDC06B7047F0B4016C0A6801680B6838
:100A500090F84440042604F01F0406FA04F51542F9
:100A600015D05D0713D50A68920603D40A6822F0F0
:100A700004020A6090F8441001F01F0106FA01F523
:100A8000016C4D60016B002941D0F0BC08474FF06C
:100A9000020C0CFA04F616424FF000074FF0010565
:100AA00019D09E0717D50A68920605D40A6822F065
:100AB0000A020A6080F8255090F8441001F01F01E6
:100AC0000CFA01F6016C4E6080F82470C16A0029AE
:100AD0001DD0F0BC08470826A640164217D01A07BA
:100AE00015D50A6822F00E020A6090F84410026CD4
:100AF00001F01F0105FA01F15160C56380F825502E
:100B000080F82470416B002901D0F0BC0847F0BC8C
:100B10007047000070B50446002C0DD02A4A2068AA
:100B2000142190420AD2294A0244B2FBF1F1890011
:100B30006164274921640BE0012070BD224A5242C2
:100B40000244B2FBF1F1890061641F490839216454
:100B5000022184F82510026847F6F0718A43D4E92F
:100B600002131943D4E904352B431943A3691943EC
:100B7000E3691943236A1943114301602046FFF7D3
:100B80009BFEA0680025B0F5804F00D16560A16C88
:100B900020790860D4E9131048606068401E03287B
:100BA00008D82046FFF7A8FE606D0560D4E916104E
:100BB000486002E06565A565E5652434A56101200E
:100BC00060702570002070BD08040240F8FFFDBF72
:100BD0000000024070B50446002594F82400012866
:100BE0000CD0012084F8240094F825600020012E08
:100BF00006D084F824000225284670BD022070BD6E
:100C0000022684F82560E0632068066826F0010665
:100C100006602046FFF782FE206B28B1206801683D
:100C200041F00E01016009E02068016821F0040133
:100C300001602068016841F00A010160A06C016850
:100C4000C90303D5016841F480710160606D18B17A
:100C5000016841F4807101602068016841F0010180
:100C60000160C9E770B5044600F0F4F80546601C61
:100C700002D004484068044400F0ECF8401BA04255
:100C8000FAD370BD400000202DE9F84F0022DFF8B4
:100C900088914FF0010803274FF00F0C09F1040A67
:100CA000A9F1040BB1E008FA02F52B40002B72D039
:100CB0000C7904F00304012C01D0022C15D18668B4
:100CC000540007FA04FE26EA0E06D1F80CE00EFAEC
:100CD00004FE4EEA060EC0F808E04468AC430D7905
:100CE000C5F300159540254345600C79E443A407FE
:100CF00008D0C568540007FA04F6B5438E68A640CC
:100D00002E43C6600C7904F00304022C11D1D408E0
:100D100000EB8406356A5407E40E0CFA04FE25EA5B
:100D20000E05D1F810E00EFA04FE4EEA050EC6F8E4
:100D300020E00568540007FA04F6B5430E7906F082
:100D40000306A6402E4306604C6814F4403F5BD077
:100D5000324C256E45F001052566246E04F0010431
:100D600000942F4C22F003052E19B56894074FEA22
:100D7000147E0CFA0EF4A543B0F1904F04D0294C28
:100D8000A04203D1012417E0002415E0264CA04224
:100D900002D1022410E037E0244CA04201D1032408
:100DA0000AE0234CA04201D1042405E0214CA042DA
:100DB00001D1052400E0062404FA0EF42C43B460AB
:100DC000D9F800409C434D68ED0200D51C43C9F89A
:100DD0000040DAF800409C434D68AD0200D51C434A
:100DE000CAF80040DBF800409C434D68AD0300D5D5
:100DF0001C43CBF80040084D083D2C689C434E68CE
:100E0000F60300D51C432C60521C0B6833FA02F425
:100E10007FF449AFBDE8F88F08040140001002409C
:100E2000000001400004004800080048000C004891
:100E300000100048001400480069084201D0012059
:100E4000704700207047002A01D08161704781629D
:100E50007047000001488068704700004000002093
:100E60000248816842681144816070474000002058
:100E700010B50024032000F077F80F2000F008F8E8
:100E800008B1012401E000F029F8204610BD00005F
:100E900070B5054600240F4E7068002817D04FF437
:100EA0007A71B1FBF0F00C490968B1FBF0F000F089
:100EB000D3FD08B101240BE0102D06D200222946F3
:100EC000501E00F031F8356002E0012400E00124FA
:100ED000204670BD400000204C00002082B00A482F
:100EE000016E41F001010166016E01F00101019105
:100EF000816D41F080518165806D00F080500190DE
:100F000002B000F0A9B8000000100240002809DB80
:100F100000F01F02012191404009800000F1E02013
:100F2000C0F8001170470000F0B40D460D4B1B686F
:100F3000C3F30223C3F10704042C00D90424191DB0
:100F4000072901D2002300E0DB1E012606FA04F186
:100F5000491E294099409E40761E16403143F0BC00
:100F600004F01EB80CED00E000F00701054A10681F
:100F70004FF6FF03184040EA012003490843106080
:100F8000704700000CED00E00000FA052F49304BDF
:100F90000A6832214A432F4900280AD0B0F5007F61
:100FA0002DD0086820F4C06040F480600860002004
:100FB00070470868C0F34120022805D051F8800F1F
:100FC00020F480700860F2E7D1F8800020F480708F
:100FD000C1F88000086820F4C06040F40070086028
:100FE000B2FBF3F0401C00E0401E4A69520501D5F7
:100FF0000028F9D148694005D9D503207047086811
:10100000C0F34120022805D051F8800F40F48070D1
:101010000860CCE7D1F8800040F48070C1F880000F
:10102000086820F4C06040F400700860B2FBF3F080
:10103000401C00E0401E4A69520501D50028F9D144
:1010400048694005B3D50320704700004C000020DC
:1010500040420F00007000400248816841F4804126
:1010600081607047007000402DE9F84F044600266B
:1010700000272068BE4D000366D54FF00008A86D1C
:10108000C00009D4A86D40F08050A865A86D00F09C
:10109000805000904FF00108DFF8D8A2DAF8000085
:1010A00040F48070CAF80000FFF7D4FE814607E0E4
:1010B000FFF7D0FEA0EB0900022801D9032603E0C8
:1010C000DAF80000C005F3D526B13746B8F1010FB4
:1010D00036D039E0D5F8900000F4407080B1216D31
:1010E00081420DD055F8900F20F44070296841F4EA
:1010F00080312960296821F48031296045F8900900
:10110000C00711D0FFF7A6FE814641F2883A07E0FA
:10111000FFF7A0FEA0EB0900504501D9032603E02C
:10112000D5F890008007F3D50EB13746CEE7D5F855
:101130009000216D20F440700843C5F89000C5E789
:10114000A86D20F08050A8652078C00707D0D5F89A
:101150008800616820F003000843C5F88800207803
:10116000800707D5D5F88800A16820F00C00084357
:10117000C5F888002078400707D5D5F88800E168D1
:1011800020F030000843C5F888002078000707D514
:10119000D5F88800216920F0C0000843C5F8880010
:1011A0002078C00607D5D5F88800616920F4407022
:1011B0000843C5F888002078800607D5D5F8880050
:1011C000A16920F440600843C5F8880020784006F3
:1011D00007D5D5F88800E16920F440500843C5F8E8
:1011E00088002078000607D5D5F88800216A20F409
:1011F00040400843C5F888002088C00507D5D5F8C9
:101200008800616A20F440300843C5F888002068EF
:10121000800307D5D5F89C00A16A20F0030008439D
:10122000C5F89C002088800507D5D5F88800E16ABC
:1012300020F440200843C5F88800208840050FD5D9
:10124000D5F88800216B20F440100843C5F88800C9
:10125000206BB0F5801F03D1E86840F48010E8608F
:10126000208800050FD5D5F88800616B20F4400078
:101270000843C5F88800606BB0F5800F03D1E868BB
:1012800040F48010E8602088C0040FD5D5F88800AD
:10129000A16B20F040700843C5F88800A06BB0F146
:1012A000807F03D1E86840F48010E86020884FF028
:1012B000006180040ED5D5F88800E26B20F0406014
:1012C0001043C5F88800E06B884203D1E86840F419
:1012D0008010E860208840040ED5D5F88800226C84
:1012E00020F040601043C5F88800206C884203D18C
:1012F000E86840F48010E860208800040FD5D5F835
:101300008800616C20F040500843C5F88800606C8C
:10131000B0F1805F03D1E86840F48030E860206875
:10132000C0030FD5D5F88800A16C20F040400843D9
:10133000C5F88800A06CB0F1804F03D1E86840F494
:101340008030E860206840030FD5D5F89C00E16C40
:1013500020F440100843C5F89C00E06CB0F5001F75
:1013600003D1E86840F48010E8603846BDE8F88FA3
:1013700000100240007000402DE9F04704460D4681
:101380000027002C17D0DFF8A091D9F8000000F05A
:101390000F00A84211D2D9F8000020F00F00284316
:1013A000C9F80000D9F8000000F00F00A84204D0EE
:1013B0000120BDE8F0870120FBE720785B4EC007E5
:1013C00041F2883A4ED06068DFF86481032806D085
:1013D00002281ED03068400520D40120E9E730689B
:1013E000800101D40120E4E702F01AFB404520D936
:1013F000B06810F0F00F04D02078800719D5A068ED
:10140000B8B9B06820F0F00040F08000B0608027EC
:101410000FE03068800301D40120CAE700F0BAF879
:10142000404506D9B06820F0F00040F08000B06080
:101430008027B068616820F003000843B060FFF7C0
:1014400009FD804607E0FFF705FDA0EB08005045C9
:1014500001D90320ADE7B068616800F00C00B0EB83
:10146000810FF0D12068810715D5400703D5B068FA
:1014700040F4E060B0602078000705D5B06820F443
:10148000605040F4E060B060B068A16820F0F00007
:101490000843B06005E0802F03D1B06820F0F00071
:1014A000B060D9F8000000F00F00A84217D9D9F8B1
:1014B000000020F00F002843C9F80000FFF7CAFC25
:1014C000074606E0FFF7C6FCC01B504501D90320C4
:1014D0006FE7D9F8000000F00F00A842F2D12078A1
:1014E000400705D5B068E16820F4E0600843B060CB
:1014F0002078000706D5B068216920F4605040EAE2
:10150000C100B06000F046F8B1680A4AC1F30311A7
:10151000515C01F01F01C840074908600748006896
:10152000BDE8F047FFF7B4BC0020024000100240C5
:1015300000B4C404685400084C000020400000209F
:1015400001480068704700004C00002000B5FFF71C
:10155000F7FF05498968054AC1F30221515C01F092
:101560001F01C84000BD0000001002407854000870
:1015700000B5FFF7E5FF05498968054AC1F3C221B7
:10158000515C01F01F01C84000BD00000010024086
:101590007854000810B51A4A9068C0F381011948C0
:1015A00001290BD091684410C1F38101022906D0B2
:1015B0009168C1F38101032903D0002010BD2046AA
:1015C00010BDD16801F00303D168C1F30311491CB8
:1015D000032B0DD0B0FBF1F0D168C1F306214843D5
:1015E000D168C1F34161491C4900B0FBF1F010BD65
:1015F000B4FBF1F0D168C1F306214843F0E70000E5
:10160000001002400024F4002DE9F8430446002CA9
:101610000CD02078FE4DC00752D0A86800F00C0016
:10162000E96801F003010C2803D004E00120BDE8C3
:10163000F883032916D0082814D06068B0F5803FDD
:1016400017D0B0F5A02F19D0286820F4803028607A
:10165000286820F480202860606818B3FFF7FAFB40
:1016600006461BE0286880032AD5606840BB01203D
:10167000DDE7286840F480302860EDE7286840F412
:1016800080202860286840F480302860E4E7FFF775
:10169000E1FB801B642801D90320C8E72868800388
:1016A000F5D50DE0FFF7D6FB064606E0FFF7D2FBC7
:1016B000801B642801D90320B9E728688003F5D48A
:1016C000207880074ED5A86800F00C00E96801F08A
:1016D00003010C2801D102290BD0042809D0E068AD
:1016E00070B3286840F480702860FFF7B3FB0646AB
:1016F0001BE02868400501D5E06868B16868217C76
:1017000020F0FE4040EA01606860C2480068FFF7D0
:10171000BFFB38B301208AE7012088E7FFF79AFB77
:10172000801B022801D9032081E728684005F5D5F0
:101730006868217C20F0FE4040EA0160686011E0AA
:10174000286820F480702860FFF784FB064606E0D6
:10175000FFF780FB801B022801D9032067E7286878
:101760004005F5D4207800072CD56069A8B1D5F8DC
:10177000940040F00100C5F89400FFF76BFB0646AB
:1017800006E0FFF767FB801B022801D903204EE724
:10179000D5F894008007F4D514E0D5F8940020F033
:1017A0000100C5F89400FFF755FB064606E0FFF779
:1017B00051FB801B022801D9032038E7D5F894009B
:1017C0008007F4D4207840076FD54FF00008A86D4B
:1017D000C00009D4A86D40F08050A865A86D00F045
:1017E000805000904FF001088B4E3068C00511D436
:1017F000306840F480703060FFF72CFB074606E04D
:10180000FFF728FBC01B022801D903200FE730682F
:10181000C005F5D5A068012813D0052818D055F8C3
:10182000900F20F001002860286820F0040045F89F
:101830009009A06841F2883608B3FFF70BFB074612
:1018400018E0D5F8900040F00100C5F89000F0E7EE
:1018500055F8900F40F004002860286840F001001F
:1018600045F89009E5E7FFF7F5FAC01BB04201D94A
:101870000320DCE6D5F890008007F4D50EE0FFF7F2
:10188000E9FA074606E0FFF7E5FAC01BB04201D9C6
:101890000320CCE6D5F890008007F4D4B8F1010F0E
:1018A00003D1A86D20F08050A865207880062CD543
:1018B000A069A8B1D5F8980040F00100C5F89800DB
:1018C000FFF7C8FA064606E0FFF7C4FA801B0228B5
:1018D00001D90320ABE6D5F898008007F4D514E0D1
:1018E000D5F8980020F00100C5F89800FFF7B2FA8B
:1018F000064606E0FFF7AEFA801B022801D9032056
:1019000095E6D5F898008007F4D4E069F0B3A968AB
:101910004FF0FF37C1F3810103295ED0022807D0C1
:10192000286820F080702860FFF794FA04464CE0A5
:10193000286820F080702860FFF78CFA064606E0E1
:10194000FFF788FA801B022801D903206FE6286878
:101950008001F5D454F8201F6068228A401E41EAB5
:101960000010A16807EB5202090241EA4251084304
:10197000217D07EB510140EA4160217B40EAC160D3
:10198000E968264A11400843E86000E062E0286800
:1019900040F080702860E86840F08070E860FFF7F1
:1019A00059FA044606E0FFF755FA001B022801D950
:1019B00003203CE628688001F5D54BE0FFF74AFAA2
:1019C000001B022801D9032031E628688001F5D4E4
:1019D000E86813490840E8603CE0012838D0E8682E
:1019E000226A00F00301914230D1616A00F0F002F6
:1019F000491EB2EB011F29D1A26A00F4FE41B1EBEE
:101A0000022F23D100F0784194F82C200AE0000046
:101A10000010024040000020007000400C809F0138
:101A2000FCFFEEFEB1EBC26F10D1228E00F4C001BC
:101A300007EB5202B1EB425F08D194F8341000F08A
:101A4000C06007EB5101B0EB416F03D00120EEE520
:101A50000120ECE50020EAE510B5401EB0F1807FE2
:101A600001D3012010BD4FF0E02460610F21601709
:101A700003F096FA0020A06107202061002010BD2D
:101A8000704770477047000030B590F83C20012A3D
:101A900045D0012280F83C20CA6800248B6822F4DB
:101AA00040721A434B6822F480621A430B6822F496
:101AB00000621A430B6922F480521A434B6922F4E4
:101AC00000521A430B6B22F480421A430B8B22F410
:101AD000702242EA0342CB6922F080521A43114D30
:101AE0000368AB4205D0104DAB4202D00F4DAB4264
:101AF00010D10D8D22F4700242EA05520D6A22F0D7
:101B000080722A434D6A22F000722A43C96A22F089
:101B100000520A435A6480F83C40002030BD022045
:101B200030BD0000002C0140003401400050014055
:101B300070477047704700002DE9F04190F83C2055
:101B4000012A43D0012580F83C50022280F83D2034
:101B500003685A689C681E4E1E4FDFF87CC0B34273
:101B600003D0BB4201D0634504D122F470084A6817
:101B700042EA0802DFF8648002EA0802D1F8008035
:101B800048EA0208C3F804800268B24212D0B2F1F7
:101B9000804F0FD0124B9A420CD0124B9A4209D070
:101BA000114B9A4206D0BA4204D0104B9A4201D04F
:101BB000624504D124F080038968194391603C3068
:101BC0004570002101700020BDE8F0810220FBE794
:101BD000002C014000340140005001408FFFFFFD08
:101BE0000004004000080040000C0040004001409C
:101BF000704710B50446002C03D094F83D0010B196
:101C000007E0012010BD002084F83C00204600F0D1
:101C100017F8022084F83D00211D206801F084FFA0
:101C200001203D34E0726070A070E070207160713E
:101C3000A071E07120726072A0722070002010BD4F
:101C400008B50068354A3649904211D1086E40F413
:101C500000600866086E00F40060009000221146E3
:101C60001920FFF761F9BDE808401920FFF74EB9C8
:101C70002C4A904211D1886D40F002008865886D31
:101C800000F002000090002211461D20FFF74CF9E1
:101C9000BDE808401D20FFF739B9234A904211D111
:101CA000886D40F010008865886D00F0100000908D
:101CB000002211463620FFF737F9BDE808403620EC
:101CC000FFF724B9194A904211D1886D40F02000E5
:101CD0008865886D00F020000090002211463720B2
:101CE000FFF722F9BDE808403720FFF70FB9104A87
:101CF000904211D1086E40F400500866086E00F45E
:101D000000500090002211462C20FFF70DF9BDE88D
:101D100008402C20FFF7FAB808BD0000002C014055
:101D20000010024000040040001000400014004079
:101D30000034014090F83D10012901D00120704786
:101D4000022180F83D100168CA6842F00102CA60B1
:101D500000681549884214D0B0F1804F11D0134962
:101D600088420ED0124988420BD01249884208D0CE
:101D70001149884205D01149884202D01049884251
:101D80000CD181680F4A114006290BD0B1F5803F74
:101D900008D0016841F00101016003E0016841F0F1
:101DA0000101016000207047002C01400004004048
:101DB00000080040000C0040003401400040014099
:101DC00000500140070001000168CA6822F00102CA
:101DD000CA6001680A6A41F211131A4207D10A6AFD
:101DE0009B001A4203D10A6822F001020A60012115
:101DF00080F83D100020704770B504460846002565
:101E000094F83C1001291CD0012684F83C60022182
:101E100084F83D1021688A68344B1A4022F47F42CE
:101E20008A600168B1F5005F2FD016DC40294CD0E4
:101E300009DCD1B1102918D0202916D030294ED173
:101E400013E0022070BD50292BD0602933D07029B7
:101E50000FD0B1F5805F42D142E011F00F0F3ED1BB
:101E60000811A0F58030072839D8206801F0E6FE77
:101E700036E0D0E902134268206801F0D4FE206801
:101E8000816841F0770181602AE0D0E9021342685D
:101E9000206801F0C8FE2068816841F480418160BB
:101EA0001EE0C2684168206802F09AF8502120685C
:101EB00001F0C4FE14E0C2684168206802F0A1F895
:101EC0006021206801F0BAFE0AE0C268416820681B
:101ED00002F086F84021206801F0B0FE00E0012504
:101EE0003C34667000202070284670BD88FFCEFF0D
:101EF00070472DE9F04104462068C66805694FF037
:101F00000007A90714D5B10712D5F91E01610120F8
:101F1000207720688069800703D02046FFF7E8FF1C
:101F200005E0204600F0FAF8204600F0BBF92777DC
:101F3000680717D5700715D521686FF00400086190
:101F4000022020772068806910F4407F03D020466B
:101F5000FFF7CEFF05E0204600F0E0F8204600F055
:101F6000A1F92777280716D5300714D521686FF017
:101F700008000861042020772068C069800703D02A
:101F80002046FFF7B5FF05E0204600F0C7F82046E1
:101F900000F088F92777E80617D5F00615D52168EF
:101FA0006FF010000861082020772068C06910F4E5
:101FB000407F03D02046FFF79BFF05E0204600F05E
:101FC000ADF8204600F06EF92777E80708D0F00753
:101FD00006D021686FF001000861204600F056FA33
:101FE000280601D4A80408D5300606D521686FF468
:101FF000025008612046FFF744FDE80508D5300689
:1020000006D521686FF4807008612046FFF738FD1F
:10201000680608D5700606D521686FF04000086193
:10202000204600F00FFBA80608D5B00606D52168AB
:102030006FF0200008612046FFF724FDE80208D574
:10204000F00206D521686FF4801008612046FFF782
:1020500070FDA80208D5B00206D521686FF4001003
:1020600008612046FFF764FD680208D5700206D5B6
:1020700021686FF4800008612046FFF75BFD2802AD
:102080000AD5300208D521686FF4000008612046A7
:10209000BDE8F041FFF7ACBDBDE8F08130B587B0D9
:1020A0000446142102A8FEF7EDF8184D216800231C
:1020B000174A02241748A94212D1D16C41F00401F9
:1020C000D164D16C01F0040101918021029103944B
:1020D00004930593069402A9FEF7D6FD07B030BD20
:1020E0000D4DA942FAD1D16C41F00401D164D16CFB
:1020F00001F004010191402102910394049305939E
:102100000421069102A9FEF7BFFDE7E700040040A5
:10211000001002400008004800340140704770B5CC
:1021200004460D46002694F83C0001280BD00120FF
:1021300084F83C000C2A4FD007DC82B1042A22D05C
:10214000082A06D134E0022070BD102A59D0142A82
:102150006BD00126002084F83C00304670BD294633
:10216000206801F075FD2068816941F008018161F6
:102170002068816921F004018161206881692A69F0
:1021800011438161E6E72946206801F0B9FD206826
:10219000816941F4006181612068816921F4806175
:1021A0008161206881692A6941EA02218161D1E760
:1021B0002946206801F0F6FD2068C16941F0080158
:1021C000C1612068C16921F00401C1612068C16951
:1021D0002A691143C161BDE72946206801F034FE38
:1021E0002068C16941F40061C1612068C16921F4BE
:1021F0008061C1612068C1692A6941EA0221C16127
:10220000A8E72946206801F071FE2068016D41F0C1
:10221000080101652068016D21F004010165206855
:10222000016D2A691143016594E72946206801F090
:1022300099FE2068016D41F4006101652068016D1F
:1022400021F4806101652068016D2A6941EA02215B
:1022500001657FE710B50446002C03D094F83D00DB
:1022600010B107E0012010BD002084F83C0020469A
:1022700000F017F8022084F83D00211D206801F0CD
:1022800053FC01203D34E0726070A070E07020715A
:102290006071A071E07120726072A07220700020E5
:1022A00010BD70477047000070B5044600290DD07E
:1022B00004290ED008290FD00C2910D0102911D0D4
:1022C00094F84300012810D0012070BD94F83E001E
:1022D000F8E794F83F00F5E794F84000F2E794F847
:1022E0004100EFE794F84200ECE70220F1B3042943
:1022F00049D008294AD00C294BD010294CD084F859
:1023000043000122206801F081FC28492068284A06
:10231000284B294D88420BD0904209D0984207D0D3
:10232000264EB04204D0264EB04201D0A84203D17E
:10233000466C46F4004646642068884211D0B0F1ED
:10234000804F0ED01F4988420BD01F49884208D0C9
:102350001E49884205D0904203D0984201D0A8423D
:102360001DD181681A4A1140062900E008E01AD000
:10237000B1F5803F17D0016841F00101016012E022
:1023800084F83E00BDE784F83F00BAE784F84000D7
:10239000B7E784F84100B4E784F84200B1E7016888
:1023A00041F001010160002070BD0000002C0140DF
:1023B0000034014000400140005001400044014011
:1023C000004801400004004000080040000C0040AC
:1023D0000700010030B504460D460022294620685A
:1023E00001F014FC234841F2111322689900824243
:1023F0000ED0214882420BD02048824208D020488B
:10240000824205D01F48824202D01F48824209D131
:10241000106A184206D1106A084203D1506C20F4A9
:10242000004050642068026A1A4206D1026A0A42D9
:1024300003D1016821F00101016001205DB1042D8B
:102440000CD0082D0DD00C2D0ED0102D0FD084F8EF
:102450004300002030BD84F83E00FAE784F83F00D6
:10246000F7E784F84000F4E784F84100F1E784F8E6
:102470004200EEE7002C01400034014000400140E2
:102480000044014000480140005001402DE9F04166
:1024900006465A4C4FF480512046FEF7CDFC00B161
:1024A0000120574F38704FF400512046FEF7C4FC0E
:1024B00000B1012038734FF480412046FEF7BCFC88
:1024C00000B1012038764FF400412046FEF7B4FCFD
:1024D00000B1012087F824004A493068002588426D
:1024E00027D10022012002EB420307EB83014C7845
:1024F00024B1012C08D0022C18D10DE017F823309C
:10250000A3B948708D6011E017F823300BB14D70FE
:102510000CE002234B7009E017F82330012B1CD08C
:102520008B685B1C8B60642B00D9C870521C042A1A
:10253000D9DB35493068354FDFF8D480354C8842D7
:1025400014D1386890B1D8F8000078B12078401CD8
:10255000C0B22070012806D008E04D708B68642B53
:10256000E4D28870E2E701F061F925702A49306809
:1025700088420DD1386858B1D8F8000040B1607871
:10258000401CC0B26070012802D101F09DF9657055
:1025900022493068884215D1214C2068401C2060B7
:1025A00020490968491E88420CD900211E48FFF7BE
:1025B00011FF1D48FFF708FC1B48006845621B48D7
:1025C000057025601A493068884215D1194C206879
:1025D000401C206018490968491E88420CD91748D8
:1025E000FFF7F2FB04211548FFF7F4FE13480068DB
:1025F0004562134805702560BDE8F081000400487D
:10260000A4090020002C0140001000401C00002004
:102610002000002050000020001400400034014041
:102620002400002010000020BC0200200100002037
:10263000000400402800002014000020D8010020E1
:1026400002000020704790F88410012918D0012161
:1026500080F884102421C0F8881001680A680B688B
:1026600023F001030B6022F0005100224266036850
:1026700019602021C0F8881080F88420002070475D
:10268000022070477047704770B5044694F8840084
:1026900001281DD0012084F884002420C4F888007B
:1026A00020680568026822F00102026020688268E2
:1026B00022F060620A438260204601F009FD206832
:1026C00005602020C4F88800002084F8840070BDD4
:1026D000022070BD70B5044694F8840001281DD016
:1026E000012084F884002420C4F88800206805684C
:1026F000026822F0010202602068826822F06042D3
:102700000A438260204601F0E3FC20680560202037
:10271000C4F88800002084F8840070BD022070BDD9
:102720007047704770B50446D4F88800D4F88C60C0
:10273000216889684FF01005090618D5212816D19F
:102740002068083050E8001F21F0800140E80012A6
:10275000002AF5D1E06F38B1FEF704F920B1E06F3F
:10276000FEF76FF9202809D0204601F073FE20689B
:10277000806840061FD5222E04D01CE0C4F890507B
:10278000032070BD2068083050E8001F21F0400190
:1027900040E80012002AF5D1D4F8800040B1FEF7DD
:1027A000E1F828B1D4F88000FEF74BF9202804D0D6
:1027B000204601F013FE002070BDC4F890500320A5
:1027C00070BD70472DE9F04104462368D869196847
:1027D0009A6840F60F0500EA0507002F0ED185061E
:1027E0000CD501F0200502F08056354306D0616F0C
:1027F00000297DD02046BDE8F0410847002602258B
:10280000002F76D0B54FDFF8D8C2174001EA0C0C84
:1028100057EA0C0C6DD05FEAC07C0CD05FEAC15C5B
:1028200009D54FF0010CC3F820C0D4F8903043F024
:102830000103C4F89030830709D5D30707D0236874
:102840001D62D4F8903043F00403C4F8903043077D
:102850000AD5D30708D0256804232B62D4F890301A
:1028600043F00203C4F8903003070CD501F02003B5
:102870003B4308D0256808232B62D4F8903043F0FE
:102880000803C4F8903003050BD54B0109D5256822
:102890004FF400632B62D4F8903043F02003C4F867
:1028A0009030D4F89030002B3CD0800609D501F050
:1028B000200002F08051084303D0616F09B1204627
:1028C0008847D4F8900021688968490602D410F03E
:1028D000280F2DD0204601F081FD20688068400639
:1028E00022D52068083050E8001F21F0400101E0A7
:1028F00018E023E040E80012002AF2D1D4F880006A
:1029000068B178498163D4F88000FEF75FF8002849
:1029100008D0D4F88000816BBDE8F041084720461C
:10292000FFF74FFFBDE8F0812046FFF74AFFF9E7C8
:102930002046FFF746FFC4F89060F3E7E76E012FEB
:102940007DD1C7067BD5CF0679D5102018622068C7
:1029500080684FF02003400655D5D4F880100A68EF
:10296000506880B2F0B3B4F85C7087423FD9A4F8E5
:102970005E000868006880062CD4206850E8001FBC
:1029800021F4807140E80012002AF6D12068083056
:1029900050E8001F21F0010140E80012002AF5D1A3
:1029A0002068083050E8001F21F0400140E8001284
:1029B000002AF5D1C4F88C30E666206850E8001F84
:1029C00021F0100140E80012002AF6D1D4F880006E
:1029D000FDF7C8FF2567B4F85C00B4F85E10401A34
:1029E00081B200E003E02046FFF74CFE9AE7B4F81E
:1029F0005C10814296D11068800693D525672046E9
:102A0000FFF740FE8EE734F85C0F6188401A81B210
:102A100060885C3C002885D0002983D0206850E87D
:102A2000002F22F4907240E80027002FF6D12B4FA0
:102A3000FF432068083050E8002F3A4000E016E0DD
:102A400040E8002CBCF1000FF3D1C4F88C30E666EE
:102A50006667206850E8002F22F0100240E800234B
:102A6000002BF6D125672046FFF70CFE5AE7C5027A
:102A700009D5550207D54FF4801018622046BDE8ED
:102A8000F041FFF74EBE03060CD501F0800302F4BF
:102A90000002134306D0A16F0029A7D02046BDE84D
:102AA000F0410847420606D54A0604D52046BDE84F
:102AB000F04101F0BDBC020206D54A0004D5204613
:102AC000BDE8F041FFF72CBEC0018FD500298DDA9B
:102AD0002046BDE8F041FFF7D6BD00000100001020
:102AE000200100048B42000810B50446002C03D0DE
:102AF000D4F8880010B107E0012010BD002084F850
:102B00008400204600F028F82420C4F888002068BB
:102B1000016821F001010160A06A10B1204601F0B6
:102B2000FBFA204601F00EFF012813D0206841680F
:102B300021F4904141602068816821F02A01816080
:102B40002068016841F0010101602046BDE81040A5
:102B500001F046BB012010BD2DE9F04F9BB00446AB
:102B6000142116A8FDF78EFB542101A8FDF78AFB5E
:102B7000CD4A2168CD4D0226002080274FF0010963
:102B80004FF010084FF4005A914269D10821019189
:102B90008346059001A8FEF767FA08B1FDF7E0FE4D
:102BA000A86D40F40020A865A86D00F400200090F6
:102BB000E86C40F00400E864E86C00F00400009069
:102BC0004FF4406016901796CDF86090032019904E
:102BD00005201A9016A9B648FEF756F8B64DB54826
:102BE00028601E206860C5F808B0C5F80CB02F61D9
:102BF000C5F814B0C5F818B02020E861C5F820A0C9
:102C00002846FDF787FF08B1FDF7AAFEC4F88050FB
:102C1000AC62A848A84D6430603528601F20686009
:102C2000C5F80880C5F80CB02F61C5F814B0C5F818
:102C300018B0C5F81CB0C5F820A02846FDF76AFFFB
:102C400008B1FDF78DFEE567AC6200221146342025
:102C5000FEF76AF93420FEF759F91BB0BDE8F08F92
:102C6000964A91427DD1CDF804808346069001A812
:102C7000FEF7FAF908B1FDF773FEA86D40F4801075
:102C8000A865A86D00F480100090E86C40F0040086
:102C9000E864E86C00F004000090E86C40F0080084
:102CA000E864E86C00F0080000904FF48050169043
:102CB0001796012018904FF00309CDF86490052570
:102CC0001A9516A97A48FDF7DFFF0420169017968B
:102CD00001201890CDF864901A9516A97848FDF750
:102CE000D3FF754D7748C035286020206860C5F84F
:102CF00008B0C5F80CB02F61C5F814B0C5F818B00D
:102D0000E861C5F820A02846FDF704FF08B1FDF7EB
:102D100027FEC4F88050AC626A486B4D643028606E
:102D200021206860C5F80880C5F80CB02F61C5F88F
:102D300014B0C5F818B0C5F81CB0C5F820A02846D6
:102D4000FDF7E8FE08B1FDF70BFEE567AC62002277
:102D500011463520FEF7E8F83520FEF7D7F87CE776
:102D6000FFE75A4A4FF0070A4FF0904B91422FD19C
:102D7000CDF804900446029001A8FEF775F9010011
:102D800001D0FDF7EDFD286E40F480402866286EE6
:102D900000F480400090E86C40F00100E864E86CCA
:102DA00000F0010000904FF4C06016901796189440
:102DB0001994CDF868A016A95846FDF765FF0022C2
:102DC00011462520FEF7B0F82520FEF79FF844E7CE
:102DD0003F4A9142C3D101968146039001A8FEF774
:102DE00043F908B1FDF7BCFDA86D40F40030A865BB
:102DF000A86D00F400300090E86C40F00100E86439
:102E0000E86C00F0010000900C2016901796CDF8A9
:102E10006090CDF86490CDF868A016A95846FDF7EB
:102E200033FF2848284D1430603528601A20686028
:102E3000C5F80890C5F80C902F61C5F81490C5F836
:102E40001890C5F81C90C5F820902846FDF762FE42
:102E500008B1FDF785FDC4F88050AC6219481A4DE1
:102E60002830C03528601B206860C5F80880C5F888
:102E70000C902F61C5F81490C5F81890C5F81C90F7
:102E8000C5F820902846FDF745FE08B1FDF768FD1E
:102E9000E567AC62002211462620FEF745F82620A1
:102EA000FEF734F8D9E60000004C00400010024064
:102EB000000800481C040240580700200050004051
:102EC000000C00481C000240780800200038014037
:102ED0000044004030B4D0F88C30202B02D00220C7
:102EE00030BC7047A9B1A2B10023C3660A4C036885
:102EF000A3420BD05B681B0208D5036853E8004F60
:102F000044F0806443E80045002DF6D130BC01F068
:102F1000A1BE0120E4E700000080004030B4D0F8FA
:102F20008C30202B02D0022030BC7047A9B1A2B156
:102F30000023C3660A4C0368A3420BD05B681B02E4
:102F400008D5036853E8004F44F0806443E8004527
:102F5000002DF6D130BC01F0CFBE0120E4E7000027
:102F6000008000400068084988420CD10749087871
:102F7000CB78421C0A7006490B5404490122C91C33
:102F80000448FFF7CBBF7047003801400000002025
:102F9000640000203006002070472DE9F843044605
:102FA0000E4615461F46D4F88800202802D002207D
:102FB000BDE8F8838EB185B100201834A0672120C8
:102FC0002067FDF747FF8146A587E58754F8100C79
:102FD000183CB0F5805F02D003E00120E8E72069EB
:102FE00020B1354600264FF0200817E00025FAE70B
:102FF0004B46002280212046009701F00FFF18B1B8
:10300000C4F888800320D3E7C5B1216815F8010B07
:103010008862B4F85600401EA4F85600B4F8560072
:103020000028E5D14B46002240212046009701F0C0
:10303000F5FE50B1C4F888800320B9E736F8020BDA
:103040002168C0F308008862E3E7C4F888800020A4
:10305000AEE7000070B50446D4F88800202801D0FF
:10306000022070BD31B32AB344F8501FA280E28021
:10307000002121642120A063E06A503CE0B1164B9E
:10308000C362E36F15481863E36F15485863E06F38
:103090008163206813462830E56F02462846216D7B
:1030A000FDF798FD40B110208834A06020202060FA
:1030B000012070BD012070BD216840200862206899
:1030C000083050E8001F41F0800140E80012002A5B
:1030D000F5D1002070BD000091430008D3430008E3
:1030E0009B42000870477047FEE70000F8B538487B
:1030F000816C41F004018164816C01F00401009154
:10310000816C41F002018164816C01F00201009147
:10311000816C41F001018164806C00F0010000903D
:103120002D482C490160002444604FF4804686609D
:103130004027C7608025056144618461C4610462E1
:10314000FDF7E8FC08B1FDF70BFC2348234960308C
:10315000016044608660C760056144618461C46148
:103160000462FDF7D7FC08B1FDF7FAFB0022114617
:103170000C20FDF7D9FE0C20FDF7C8FE00221146F9
:103180000D20FDF7D1FE0D20FDF7C0FE00221146F7
:103190000E20FDF7C9FE0E20FDF7B8FE00221146F5
:1031A0001120FDF7C1FE1120FDF7B0FE00221146EF
:1031B0003920FDF7B9FE3920FDF7A8FE002211469F
:1031C0006220FDF7B1FEBDE8F8406220FDF79EBE2B
:1031D0000010024008000240CC0000200804024019
:1031E000F0B587B0142102A8FDF74CF82248C16C55
:1031F00041F02001C164C16C01F020010191C16C5A
:1032000041F00101C164C16C01F001010191C16C87
:1032100041F00201C164C16C01F002010191C16C75
:1032200041F00801C164C16C01F008010191C16C59
:1032300041F00401C164C06C00F0040001900F4F24
:103240004FF4AC45002229463846FDF7FCFD4FF40B
:1032500070400290002403940126049602A90848B5
:10326000FDF712FD029503960494059402A93846D1
:10327000FDF70AFD07B0F0BD00100240000C004849
:103280000004004810B588B0002404940594069406
:103290000794019402940394144813490160A921EE
:1032A0004160846042F20F71C160046144618461D5
:1032B000FEF79FFC08B1FDF753FB4FF480500490DC
:1032C00004A90A48FEF798FD08B1FDF749FB0194EF
:1032D0000294039401A90548FEF72EFC002801D0B2
:1032E000FDF73EFB08B010BD002C01408C01002012
:1032F00010B58EB000240A940B940C940D9407948E
:10330000089409941C216846FCF7BCFF1E481D491F
:10331000016040F2E73141608460C1600461846112
:10332000FEF767FC08B1FDF71BFB4FF480500A90D5
:103330000AA91548FEF760FD08B1FDF711FB124818
:10334000FEF788FF08B1FDF70BFB0794099407A966
:103350000D48FEF7F1FB08B1FDF702FB602000907D
:103360004FF4FA70019002940494042269460648CE
:10337000FEF7D5FE08B1FDF7F3FA0348FEF78EFE1F
:103380000EB010BD00040040D80100203EB500245E
:103390000094019402940E480C49016040F2A3612C
:1033A0004160846040F2E731C1608461FEF721FC36
:1033B00008B1FDF7D5FA0094029469460448FEF777
:1033C000BBFB002801D0FDF7CBFA3EBD001000404A
:1033D000240200203EB500240094019402940E487B
:1033E0000C49016040F2A3614160846040F2E73122
:1033F000C1608461FEF7FDFB08B1FDF7B1FA0094EE
:10340000029469460448FEF797FB002801D0FDF7B7
:10341000A7FA3EBD001400407002002010B59CB019
:103420000024189419941A941B94159416941794C4
:103430001C210EA8FCF726FF342101A8FCF722FF6F
:103440002C482B49016040F2E73141608460C16043
:10345000046144618461FEF7CCFB08B1FDF780FA9A
:103460004FF48050189018A92248FEF7C5FC08B107
:10347000FDF776FA1F48FEF7EDFE08B1FDF770FA8A
:1034800015941694179415A91A48FEF755FB08B120
:10349000FDF766FA60200E904FF4FA700F901094CA
:1034A000119412941394149400220EA91148FEF75B
:1034B00036FE08B1FDF754FA019402940394049483
:1034C00005944FF400500690079408940994000363
:1034D0000A900B940C940D9401A90648FEF7D4FAB7
:1034E00008B1FDF73DFA0348FEF7D8FD1CB010BD4A
:1034F00000340140BC02002010B518481649016094
:103500004FF4E131416000218160C16001610C2212
:1035100042618161C161016241628162FFF7E4FA47
:1035200008B1FDF71DFA00210C48FFF7D3F808B1E8
:10353000FDF716FA00210948FFF7A6F808B1FDF7D4
:103540000FFA0648FFF77FF8002803D0BDE81040C7
:10355000FDF706BA10BD0000004C00400805002031
:1035600010B51848164901604FF4E131416000215F
:103570008160C16001610C2242618161C1610162AF
:1035800041628162FFF7B0FA08B1FDF7E9F9002165
:103590000C48FFF79FF808B1FDF7E2F90021094850
:1035A000FFF772F808B1FDF7DBF90648FFF74BF8B3
:1035B000002803D0BDE81040FDF7D2B910BD0000CF
:1035C000005000409C05002010B5184816490160C5
:1035D0004FF4E131416000218160C16001610C2242
:1035E00042618161C161016241628162FFF77CFADF
:1035F00008B1FDF7B5F900210C48FFF76BF808B1E9
:10360000FDF7AEF900210948FFF73EF808B1FDF7D4
:10361000A7F90648FFF717F8002803D0BDE81040C7
:10362000FDF79EB910BD00000038014030060020B3
:1036300010B51848164901604FF4E131416000218E
:103640008160C16001610C2242618161C1610162DE
:1036500041628162FFF748FA08B1FDF781F9002164
:103660000C48FFF737F808B1FDF77AF9002109484F
:10367000FFF70AF808B1FDF773F90648FEF7E3FF14
:10368000002803D0BDE81040FDF76AB910BD000066
:1036900000440040C4060020FEE7000070B5174D4E
:1036A0006878002829D1B5EEC00AF1EE10FA24D0CE
:1036B000DFED130A20EE200ADFED120A80EE201A59
:1036C000BDEEC10A10EE104A0F484FF48061002C85
:1036D00003DB0122FDF7B7FB03E00022FDF7B3FB9C
:1036E00064422C61012068700848FEF723FBBDE8A6
:1036F000704000210548FEF7D7BD70BD00000020D6
:10370000000080426666E63F000C0048BC020020D4
:1037100070B5174DA878002829D1B5EEC00AF1EE92
:1037200010FA24D0DFED130A20EE200ADFED120A92
:1037300080EE201ABDEEC10A10EE104A0F484FF479
:103740008051002C03DB0122FDF77DFB03E000220A
:10375000FDF779FB64426C610120A8700848FEF710
:10376000E9FABDE8704004210548FEF79DBD70BD33
:1037700000000020000080426666E63F000C004822
:10378000D8010020FEE7000010B504462DED048BA3
:10379000F0EE418AB0EE618AB0EE429A30EEC00A95
:1037A00084ED000AF0EEC00A10EE900A1B49884230
:1037B00006DAD4ED040A30EE800A84ED040A03E050
:1037C0009FED170A84ED040A94ED040A9FED151A83
:1037D000DFED150A01F014FCF0EE402AC4ED042AD6
:1037E000D4ED000A94ED011AB0EE002AF0EE601A52
:1037F00020EEA80A41EE421A94ED022A08EE220AAF
:1038000071EE821A09EE210A84ED030A84ED021A90
:10381000C4ED010ABDEC048B10BD00000000C842DD
:103820000000000000007A4300007AC370B522480F
:10383000224D00686968421A00EE102AB8EEC00AEC
:10384000B0EEC00A10EE102AB2F1814F06DC002162
:103850001B48FEF7BFFD0020287070BD00EE100A67
:10386000F8EEC00A00EE101AB8EEC00A00F07AF8BE
:10387000B5EEC00AF1EE10FA01DD012401E04FF0CF
:10388000FF3400F093F80646002C01DC012200E032
:1038900000224FF480610B48FDF7D5FA0848761EE8
:1038A0000068866228780028D7D100210448FEF7F6
:1038B000FBFC0120287070BD1C000020540000207B
:1038C000BC020020000C004870B52248224D006860
:1038D000A968421A00EE102AB8EEC00AB0EEC00A7B
:1038E00010EE102AB2F1814F06DC04211B48FEF7CE
:1038F00071FD0020687070BD00EE100AF8EEC00A7D
:1039000000EE101AB8EEC00A00F03EF8B5EEC00A9C
:10391000F1EE10FA01DD012401E04FF0FF3400F078
:1039200045F80646002C01DD012200E000224FF49C
:1039300080510B48FDF787FA0848761E00688662BA
:1039400068780028D7D104210448FEF7ADFC012097
:10395000687070BD2000002054000020D8010020B5
:10396000000C004804489FED052ADFED051A9FED85
:10397000051AFFF709BF0000D40900206F12033BAE
:10398000ACC52737A69BC43B04489FED052ADFED55
:10399000051A9FED051AFFF7F7BE0000E8090020A1
:1039A0006F12033B17B7D138A69BC43B10B52DED62
:1039B000028BB0EEC00A9FED148AB7EE001AF0EE4B
:1039C000480A01F01DFB70EE480A9FED101A80EEC8
:1039D000810ADFED0F0A20EE200ABDEEC00A10EECC
:1039E000100AC0F5966000EE100A9FED0A1ADFED8E
:1039F0000A0AB8EEC00A01F003FBBDEEC00ABDEC36
:103A0000028B10EE100A10BDCDCC4C3D3333733F0A
:103A100000C08F44000096440000484270470000F8
:103A20001049C86800F00302C868C0F30310401CC6
:103A3000032A0ED00C4AB2FBF0F0CA68C2F3062289
:103A40005043C968C1F34161491C4900B0FBF1F022
:103A50007047064AB2FBF0F0CA68C2F30622504330
:103A6000EFE70000001002400024F40000127A008A
:103A70007047FDF7F5B910B594B0382106A8FCF7EA
:103A800001FC142101A8FCF7FDFB0020FDF77EFAE4
:103A9000012006900004079002200D9003240E944C
:103AA0000F905521109111901290139006A8FDF7D8
:103AB000ABFD08B1FCF754FF0F20019002940020E9
:103AC000039004900590042101A8FDF755FC0028FF
:103AD00001D0FCF745FF14B010BD0000024801689A
:103AE00041F470010160704788ED00E00148FEF785
:103AF00000BA00008C0100200148FEF7FAB900006E
:103B0000D80100200148FEF7F4B90000240200208B
:103B10000148FEF7EEB90000700200200148FEF7F0
:103B2000E8B90000BC0200202DE9F04F02682E4EDB
:103B3000DFF8B890DFF8B8A0DFF8B8B02E4B2F4C04
:103B40004FF0804EB0420BD0704509D0484507D0A9
:103B5000504505D0584503D0984201D0A04203D12A
:103B600022F070054A682A43254FDFF898C0DFF835
:103B70009880B04211D070450FD048450DD05045C7
:103B80000BD0584509D0984207D0B84205D06045BF
:103B900003D0404501D0A04203D122F44075CA6849
:103BA0002A434D6922F080022A4302608A68C26279
:103BB0000A688262B04209D0984207D0B84205D064
:103BC000604503D0404501D0A04201D1096901639D
:103BD000012141610169C90703D0016921F0010197
:103BE0000161BDE8F08F0000002C0140000400409E
:103BF00000080040000C004000340140005001402B
:103C000000400140004401400048014010B501F06F
:103C10001F0101238B40046A9C430462036A8A40AB
:103C20001343036210BD10B5846824F47F4442EA54
:103C300003220A432243826010BD00008268034BC6
:103C40001A400A4342F00701816070478FFFCFFF9F
:103C50002DE9F047056A026A22F001020262426819
:103C60008369204C234023F003030C681C4325F098
:103C700002058B682B431C4E1C4FDFF874C0DFF825
:103C80007480DFF87490DFF874A0B04209D0B842B5
:103C900007D0604505D0404503D0484501D0504588
:103CA00005D123F00805CB682B4323F00403B04271
:103CB00009D0B84207D0604505D0404503D04845FB
:103CC00001D0504507D122F4807222F400724D6970
:103CD00015438A692A4342608461496841630362EB
:103CE000BDE8F0878FFFFEFF002C0140003401404B
:103CF00000400140004401400048014000500140A4
:103D0000F0B5046A026A22F0100202624268836916
:103D10001D4D2B4023F440730D6843EA052524F024
:103D200020038C6843EA0413184C194E194FA04223
:103D300003D0B04201D0B84207D123F08003D1F8BC
:103D40000CC043EA0C1323F04003A0420CD0B04255
:103D50000AD0114CA04207D0104CA04204D0104C05
:103D6000A04201D0B84209D122F4806222F400625C
:103D70004C6942EA84028C6942EA840242608561AD
:103D8000496881630362F0BDFF8FFFFE002C014094
:103D90000034014000500140004001400044014017
:103DA00000480140F0B5056A026A22F4807202629E
:103DB0004268C3691D4C234023F003030C681C4375
:103DC00025F400738D6843EA0523194D194E1A4FE7
:103DD000A84203D0B04201D0B84207D123F4006317
:103DE000D1F80CC043EA0C2323F48063A8420CD022
:103DF000B0420AD0114DA84207D0114DA84204D0BC
:103E0000104DA84201D0B84209D122F4805222F4C8
:103E100000524D6942EA05128D6942EA051242607C
:103E2000C4614968C1630362F0BD00008FFFFEFFFB
:103E3000002C01400034014000500140004001408E
:103E40000044014000480140F0B5046A026A22F4CF
:103E5000805202624268C3691D4D2B4023F44073B7
:103E60000D6843EA052524F400538C6843EA0433C3
:103E7000184C194E194FA04203D0B04201D0B8429D
:103E800007D123F40043D1F80CC043EA0C3323F4E8
:103E90008043A0420CD0B0420AD0114CA04207D0BF
:103EA000104CA04204D0104CA04201D0B84209D11D
:103EB00022F4804222F400424C6942EA84128C6966
:103EC00042EA84124260C561496801640362F0BD40
:103ED000FF8FFFFE002C01400034014000500140E4
:103EE00000400140004401400048014030B5056AEF
:103EF000026A22F4803202624268036D124C23404F
:103F00000C681C4325F400330D8943EA05430F4D2B
:103F1000A8420ED00E4DA8420BD00E4DA84208D09C
:103F20000D4DA84205D00D4DA84202D00C4DA8421F
:103F300004D122F480324D6942EA052242600465D0
:103F400049688164036230BD8FFFFEFF002C014091
:103F5000003401400040014000440140004801405D
:103F60000050014030B5036A026A22F480120262F6
:103F70004268046D134D2C400D6844EA052423F477
:103F800000130D8943EA05530F4DA8420ED00F4D83
:103F9000A8420BD00E4DA84208D00E4DA84205D025
:103FA0000D4DA84202D00D4DA84204D122F480222A
:103FB0004D6942EA8522426004654968C164036232
:103FC00030BD0000FF8FFFFE002C01400034014097
:103FD00000400140004401400048014000500140C1
:103FE00010B5036A046A24F001040462846924F0B1
:103FF000F00444EA021423F00A020A4384610262D4
:1040000010BD10B5036A046A24F0100404628469C8
:1040100024F4704444EA023223F0A00343EA01117D
:104020008261016210BD000010B50F480068C169CF
:10403000C943C90613D4102101620B48FEF772FB75
:104040000A48006840680A49C0F1FF000870094941
:1040500001200870FF2208490348FEF73BFFBDE836
:1040600010400148FEF7AEBB0805002058070020AD
:104070002D0000202C0000200803002010B50F4860
:104080000068C169C943C90613D4102101620B48F5
:10409000FEF748FB0A48006840680A49C0F1FF0083
:1040A0000870094901200870FF2208490348FEF7FB
:1040B00011FFBDE810400148FEF784BB9C050020BD
:1040C000180800202F0000202E00002007040020E8
:1040D00030B5416E002917D002689168C1F3426182
:1040E0009268520F0B4B9C5CE50003F10804A25C44
:1040F000B5FBF2F2A0F86A205A5C615CD200B2FB18
:10410000F1F1A0F8681030BD0121683041800180D4
:1041100030BD00005854000890F82810090706D553
:1041200001684A68836B22F400421A434A6090F89F
:104130002810C90706D001684A68C36A22F4003211
:104140001A434A6090F82810890706D501684A6822
:10415000036B22F480321A434A6090F82810490712
:1041600006D501684A68436B22F480221A434A60EC
:1041700090F82810C90606D501688A68C36B22F436
:1041800080521A438A6090F82810890606D5016883
:104190008A68036C22F400521A438A6090F828104F
:1041A000490611D501684A68436C22F480121A430B
:1041B0004A60416CB1F5801F06D101684A68836C82
:1041C00022F4C0021A434A6090F82810090606D566
:1041D00001684A68C06C22F4002202434A607047BA
:1041E0002DE9F84304460025C4F89050FCF732FE50
:1041F0008046206800684FF0200600076FF07E4779
:1042000016D54346002231042046009700F006FEF2
:1042100070B1206850E8001F21F0800140E80012D2
:10422000002AF6D18434666025700320BDE8F88347
:1042300020680068400720D5434600224FF48001E3
:104240002046009700F0EAFDB8B1206850E8001F52
:1042500021F4907140E80012002AF6D1206808305D
:1042600050E8001F21F0010140E80012002AF5D1BA
:104270008434A66025700320D8E76C34E66126629A
:104280002560656025760020D0E710B5806A0021A2
:10429000A0F85E10FEF795FA10BD70B5846AD4F8E8
:1042A0008800D4F88C50216889684FF00006090610
:1042B00006D5212804D1A4F85660204600F0CAF89B
:1042C00020688068400606D5222D04D1A4F85E60DF
:1042D000204600F083F8D4F8900040F01000C4F8B5
:1042E00090002046FEF76DFA70BD10B50146886A51
:1042F000096809684FF0000389062DD4A0F85E30E4
:10430000016851E8002F22F4807241E80024002C5B
:10431000F6D10168083151E8002F22F0010241E88E
:104320000024002CF5D10168083151E8002F22F05B
:10433000400241E80024002CF5D12021C0F88C1067
:10434000C16E012908D1016851E8002F22F0100246
:1043500041E80024002CF6D10367C16E012902D088
:10436000FEF700FE10BDB0F85C10FEF78BF910BD33
:1043700010B5806A01210167C16E012902D0FEF7E4
:104380000BFE10BDB0F85C104908FEF77BF910BDBC
:1043900010B50146886A09680968890616D40021A3
:1043A000A0F856100168083151E8002F22F0800271
:1043B00041E80023002BF5D1016851E8002F42F0BD
:1043C000400241E80023002BF6D110BDFEF78AFE23
:1043D00010BD10B5806AFEF786FE10BD10B50168ED
:1043E00051E8002F22F4907241E80023002BF6D10F
:1043F0000E4B0168083151E8002F1A4041E80024B3
:10440000002CF6D1C16E012908D1016851E8002FB6
:1044100022F0100241E80023002BF6D12021C0F841
:104420008C100021C166416710BD0000FEFFFFEF48
:1044300010B5016851E8002F22F0400241E8002346
:10444000002BF6D12021C0F8881000218167FEF7EB
:1044500049FE10BD016851E8002F22F0C00241E87A
:104460000023002BF6D10168083151E8002F22F417
:10447000000241E80023002BF5D12021C0F888106C
:104480007047000010B5B0F86020D0F88C3001689B
:10449000222B04D0886940F00800886110BD496A69
:1044A00050F8583F114019800168891C0160C1888B
:1044B000491EC180C18858380029EFD1016851E8F0
:1044C000002F22F4907241E80023002BF6D10168FE
:1044D000083151E8002F22F0010241E80023002BAF
:1044E000F5D12021C0F88C10002444670467164AD7
:1044F000016891420BD04968090208D5016851E86A
:10450000002F22F0806241E80023002BF6D1C16E1B
:10451000012902D0FEF726FD10BDC466016851E8EE
:10452000002F22F0100241E80023002BF6D1016891
:10453000CA69D243D20601D410220A62B0F85C10D4
:10454000FEF7A0F810BD0000008000402DE9F04704
:104550000446B4F860802068C569D0F80090866889
:10456000D4F88C10222905D0816941F008018161BD
:10457000BDE8F087B4F868A0002743E02068406AEF
:10458000A16D00EA08000880A06D801CA065B4F849
:104590005E00401EA4F85E002068C56969072ED041
:1045A000E9070AD05FEAC95107D501210162D4F8B1
:1045B000900040F00100C4F89000A8070AD5F00769
:1045C00008D0216802200862D4F8900040F004006E
:1045D000C4F8900068070AD5F00708D021680420C5
:1045E0000862D4F8900040F00200C4F89000D4F8BB
:1045F000900020B12046FEF7E4F8C4F89070B4F8BB
:104600005E0010B3BAF1000F01D0A806B6D4B4F81A
:104610005E000028ACD0B4F868108142A8D92068A8
:10462000083050E8001F21F0805140E80012002AB5
:10463000F5D129486067206850E8001F41F020014B
:1046400040E80012002AF6D192E7206850E8001FE7
:1046500021F4807140E80012002AF6D11F4A206838
:10466000083050E8001F114040E80013002BF6D13D
:104670002020C4F88C0067672767194920688842A2
:104680000BD04068000208D5206850E8001F21F0D8
:10469000806140E80012002AF6D1E06E012803D0C4
:1046A0002046FEF75FFCB2E7E766206850E8001F8F
:1046B00021F0100140E80012002AF6D12068C169FB
:1046C000C943C90601D410210162B4F85C10204628
:1046D000FDF7D8FF9BE7000085440008FEFFFFEFD1
:1046E0000080004010B5B0F86020D0F88C30016830
:1046F000222B04D0886940F00800886110BD496A07
:10470000114050F8582F11700168491C0160C18890
:10471000491EC180C18858380029EFD1016851E88D
:10472000002F22F4907241E80023002BF6D101689B
:10473000083151E8002F22F0010241E80023002B4C
:10474000F5D12021C0F88C10002444670467164A74
:10475000016891420BD04968090208D5016851E807
:10476000002F22F0806241E80023002BF6D1C16EB9
:10477000012902D0FEF7F6FB10BDC466016851E8BE
:10478000002F22F0100241E80023002BF6D101682F
:10479000CA69D243D20601D410220A62B0F85C1072
:1047A000FDF770FF10BD0000008000402DE9F047CC
:1047B0000446B4F860802068C569D0F80090866827
:1047C000D4F88C10222905D0816941F0080181615B
:1047D000BDE8F087B4F868A0002743E02068406A8D
:1047E000A16D00EA08000870A06D401CA065B4F837
:1047F0005E00401EA4F85E002068C56969072ED0DF
:10480000E9070AD05FEAC95107D501210162D4F84E
:10481000900040F00100C4F89000A8070AD5F00706
:1048200008D0216802200862D4F8900040F004000B
:10483000C4F8900068070AD5F00708D02168042062
:104840000862D4F8900040F00200C4F89000D4F858
:10485000900020B12046FDF7B4FFC4F89070B4F882
:104860005E0010B3BAF1000F01D0A806B6D4B4F8B8
:104870005E000028ACD0B4F868108142A8D9206846
:10488000083050E8001F21F0805140E80012002A53
:10489000F5D129486067206850E8001F41F02001E9
:1048A00040E80012002AF6D192E7206850E8001F85
:1048B00021F4807140E80012002AF6D11F4A2068D6
:1048C000083050E8001F114040E80013002BF6D1DB
:1048D0002020C4F88C006767276719492068884240
:1048E0000BD04068000208D5206850E8001F21F076
:1048F000806140E80012002AF6D1E06E012803D062
:104900002046FEF72FFBB2E7E766206850E8001F5D
:1049100021F0100140E80012002AF6D12068C16998
:10492000C943C90601D410210162B4F85C102046C5
:10493000FDF7A8FE9BE70000E5460008FEFFFFEF3D
:10494000008000402DE9F04104460025B54B206869
:104950002269A168E6691143626932431143026822
:10496000B14E32400A43026020684168E26821F497
:10497000405111434160A0692168994201D0226AE7
:1049800010438A68A94E324002438A602068C16A97
:10499000626A21F00F011143C162A5492268A5484E
:1049A0008A4214D1D0F8880010F0030007D0012803
:1049B00009D0022805D0032807D0102185E0012165
:1049C00083E0022181E004217FE008217DE09A4913
:1049D0008A4214D1D0F8880010F00C0007D00428C7
:1049E00009D0082805D00C2807D010216DE000213F
:1049F0006BE0022169E0042167E0082165E08F494E
:104A00008A4214D1D0F8880010F0300007D0102866
:104A100009D0202805D0302807D0102155E00021EA
:104A200053E0022151E004214FE008214DE0844988
:104A30008A4214D1D0F8880010F0C00007D0402876
:104A400009D0802805D0C02807D010213DE00021E2
:104A50003BE0022139E0042137E0082135E07949C3
:104A60008A4217D1D0F8880010F440700AD0B0F50F
:104A7000807F0BD0B0F5007F06D0B0F5407F07D027
:104A8000102122E0002120E002211EE004211CE090
:104A900008211AE09A4217D1D0F8880010F440603B
:104AA0000AD0B0F5806F0BD0B0F5006F06D0B0F52E
:104AB000406F07D0102108E0002106E0022104E049
:104AC000042102E0082100E010215F485F4E00272A
:104AD0004FF4004C9A4239D1B9B1022905D00429CA
:104AE00016D0082917D00020012560B3616A36F876
:104AF0001120B0FBF2F1666806EB46038B4202D848
:104B0000B1EB063F09D9012582E0FCF71FFDECE778
:104B1000FCF740FDE9E76046E7E700231946FBF7AD
:104B200079FB090241EA106102027008101879410C
:104B300032460023FBF76EFB454AA0F540719142D7
:104B400002D82168C86063E0012561E0E2694FF6A0
:104B5000EF78624530D1092911D2DFE801F005086C
:104B600012100B1010100E00FCF7F0FC09E0FCF71F
:104B7000FFFC06E0FCF70EFD03E0604601E00020CC
:104B80000125E8B3616A36F81110B0FBF1F041007D
:104B9000606801EB5001B1FBF0F0A0F1100141455C
:104BA00008D84FF6F0710140C0F34200014320687D
:104BB000C1602DE001252BE0092911D2DFE801F0C9
:104BC000050812100B1010100E00FCF7BFFC09E0D6
:104BD000FCF7CEFC06E0FCF7DDFC03E0604601E0FC
:104BE0000020012560B1616A36F81110B0FBF1F1C7
:104BF000606801EB5001B1FBF0F0A0F1100100E0A2
:104C000006E0414503D8216880B2C86000E0012574
:104C10000120683460802080E76027612846BDE875
:104C2000F081000000800040F369FFCFFFF4FF1126
:104C3000003801400010024000440040004800409D
:104C4000004C0040005000400024F4004054000894
:104C5000FFFC0F0070B5044644F8581FA2800021E5
:104C6000A16322206063A06A583C00281DD01F4B1E
:104C7000C362241D1E48E36F1863E36F1D48586329
:104C8000E06F8163606D54F8041CE56F13460246C3
:104C90002431241F2846FBF79DFF30B110208C34AF
:104CA000606020202060012070BD206940B1206834
:104CB00050E8001F41F4807140E80012002AF6D14C
:104CC0002068083050E8001F41F0010140E8001260
:104CD000002AF5D12068083050E8001F41F040015B
:104CE00040E80012002AF5D1002070BDEB42000818
:104CF000714300089B42000870B58165A0F85C20F4
:104D0000A0F85E200023436781684FF48055FF249C
:104D1000A94209D1016911B1A0F860400BE040F24D
:104D2000FF11A0F8601006E07F26C1B1B1F1805FED
:104D30001DD0A0F86030C0F890302221C0F88C104F
:104D40000168083151E8003F43F0010341E80034B5
:104D5000002CF5D1416EB1F1005F11D034E0016952
:104D600011B1A0F86060E6E7A0F86040E3E70169F0
:104D700019B13F21A0F86010DDE7A0F86060DAE724
:104D8000B0F8681091421FD88168A94201D1016929
:104D9000B9B11E494167016941B1016851E8002F6D
:104DA00042F4807241E80023002BF6D101680831FB
:104DB00051E8002F42F0805241E80023002BF5D14A
:104DC00021E013494167E6E78168A94201D1016901
:104DD00069B110494167016961B1016851E8002F6B
:104DE00042F4907241E80023002BF6D10BE00A490F
:104DF0004167F0E7016851E8002F42F0200241E8E6
:104E00000023002BF6D1002070BD0000AD47000844
:104E10004D450008E5460008854400082DE9F047A7
:104E20000446089E0D46174698464FF0000935E0A7
:104E3000701C33D0FCF70EF8A0EB0800B04219D874
:104E4000C6B120680168490728D5802D26D0402D9D
:104E500024D0C169C94309070ED42068082505621A
:104E60002046FFF7BBFAC4F8905084F884900120E4
:104E7000BDE8F0870320FBE7C069C04300050DD4FF
:104E800021684FF4006008622046FFF7A7FA20204F
:104E9000C4F8900084F884900320E9E72068C06992
:104EA00035EA000004D00020B842C1D00020DFE77E
:104EB0000120F9E70148FDF785BC0000300600201D
:104EC00010B52C4C2068C169C943C9064CD41021C7
:104ED00001622046FDF726FCD4F880000068406897
:104EE000212225492046FDF7F5FF2349887D5528D5
:104EF0003AD1C87D532837D120480A7E42804B7E64
:104F0000038042EA032200EE102AB8EE400ADFEDE9
:104F10001C0A9FED1C1A1C4C20EE200A20EE010AF0
:104F200084ED000A8A7EC280CB7E838042EA03221F
:104F300000EE102AB8EE400A20EE200A20EE010A08
:104F400084ED010A0A7F4281497F018142EA012101
:104F500000EE101AB8EE400A80ED030A20EE200A97
:104F600020EE010A84ED020ABDE810400148FDF779
:104F700029BC0000C4060020AA0000203000002048
:104F8000000000380000344398090020FEE70000CC
:104F9000014A024900F023B82150000860000020B7
:104FA0000907090E002804DB00F1E02080F8001456
:104FB000704700F00F0000F1E02080F8141D7047EA
:104FC00002E008C8121F08C1002AFAD170477047D2
:104FD000002001E001C1121F002AFBD170472DE91A
:104FE000F04116460F460446002503E03946B04717
:104FF000641C6D1C20780028F8D12846BDE8F0819B
:10500000B4EEC10AF1EE10FA02DDB0EE410A7047CB
:10501000B4EEE00AF1EE10FAF9D2B0EE600A704791
:1050200013B54FF0FF33012269460248FDF7B5FF83
:1050300000981CBD3006002070B5284D284CA8787B
:1050400001282DD12749632009688862264909680B
:105050008862264E012251023046FBF7F4FE0122FF
:1050600091033046FBF7EFFE00F0CCF800F024F996
:1050700094ED060AD4ED020AB8EEC00A30EE600ADA
:10508000FEF70CFB94ED030AB1EE400AFEF740FB7D
:1050900002E017A0FFF77CFF6078A1780843F8D101
:1050A000A87B0026012803D1A0691E38A061AE7339
:1050B000A87E012803D1A0691E30A061AE7695F8C4
:1050C0002600012809D100210648FDF783F90421B3
:1050D0000548FDF77FF985F8266070BDA40900201A
:1050E00000000020BC020020D8010020000C004875
:1050F00000000000FBF7BCFEFEF7BDFCFEF770F8F9
:10510000FDF7F4FFFEF7BEF8FEF75EFAFEF7F4F9DE
:10511000FEF726FAFEF7ECF8FEF780F9FEF736F90F
:10512000FEF758F9FEF784FA2C48102401680C6247
:105130000068016841F010010160FF2228492748FA
:10514000FDF7C8FE274801680C620068016841F05D
:1051500010010160FF2224492248FDF7BBFE2348CD
:105160000068016841F010010160212220491F48B8
:10517000FDF7B0FE03221F491C48FDF76BFF1D49D8
:105180000122491E1C48FDF7C9FE1C48FCF7D2FD50
:1051900061011B4C00222046FBF755FE00224FF414
:1051A00080412046FBF74FFE012291022046FBF78B
:1051B0004AFE012211032046FBF745FE0D4D2D1F2F
:1051C0002C783CB10120FBF74DFD2878844201D1B9
:1051D00000F0CCF8FFF730FFF2E7000008050020F0
:1051E000080300209C05002007040020C4060020BE
:1051F000AA00002004000020300600208C010020BE
:10520000000C00487FB5002400940194029403949C
:1052100001208DF8000036208DF801006B208DF8FC
:10522000020003224FF6FF7369461C48FDF7B5FEE6
:105230001B4D28780028FCD02C700120FBF712FDB4
:105240002C7018480178012926D14178362923D1BC
:105250001549097808291FD18179C27841EA02618C
:1052600002794379120442EA0322114300EE101A34
:10527000DFED0E0A0F49B8EE400A20EE200ADFEDFE
:105280000C0A20EE200A81ED020A8078002803D063
:10529000B1EE400A81ED020A7FBD00000805002042
:1052A0002C000020080300202D0000200000B44343
:1052B00000008037000000207FB500240094019496
:1052C0000294039401208DF8000036208DF801002F
:1052D0006B208DF8020003224FF6FF7369461C48CD
:1052E000FDF75BFE1B4D28780028FCD02C700120B8
:1052F000FBF7B8FC2C7018480178012926D14178B9
:10530000362923D11549097808291FD18179C27816
:1053100041EA026102794379120442EA032211430D
:1053200000EE101ADFED0E0A0F49B8EE400A20EE2B
:10533000200ADFED0C0A20EE200A81ED030A8078B6
:10534000002803D0B1EE400A81ED030A7FBD0000C2
:105350009C0500202E000020070400202F000020C4
:105360000000B443000080370000002070B52DED30
:10537000028B2D4C207800284CD02C4D29786129A7
:1053800032D169782D292FD0284410F8010C6228D9
:105390002AD104F120031A1F25A12846FAF77EFF1F
:1053A000E069A0F5C87000EE100AB8EEC00A206AE5
:1053B000A0F5967000EE900AB8EEE08AB0EEC00A52
:1053C00010EE100A4FF08046B04203DC00211A486C
:1053D000FDF700F8B0EEC80A10EE100AB04203DC88
:1053E00004211648FCF7F6FF2878612812D1687866
:1053F0002D280FD12078284410F8010C622809D1FB
:10540000E06938B1206A28B14FF4C870E0614FF408
:1054100096702062002020704621BDEC028B03486C
:10542000BDE87040FAF72EBF0000002064000020A5
:105430006125642C25646200BC020020D801002094
:10544000010002000400060008000A000C00100021
:10545000200040008000000101010103070100005D
:10546000080402040801010100000000000000001F
:1054700001020304060708090000000001020304FA
:10548000DDDDDDDDDCBBBBDDDDDDDDDDDDDDDDDD91
:1054900098888888888888887777777777888888D1
:1054A0008555555666666666666666666668888869
:1054B0008333333222222222222222222228888D62
:1054C000E05400080000002064000000C04F000805
:1054D00044550008640000209C0D0000D04F0008D7
:1054E00000000000FFAA52000000000000000000C1
:1054F00000000000000000000000000000000000AC
:10550000000000000000000000000000000000009B
:10551000000000000000000000000000000000008B
:105520001000000001000000000000000024F40052
:105530000000000000000000900100002C010000AD
:045540000000000067
:04000005080001D915
:00000001FF
